{
  "_format": "hh-sol-artifact-1",
  "contractName": "NFTDemo",
  "sourceName": "contracts/NFTDemo.sol",
  "abi": [
    {
      "inputs": [],
      "stateMutability": "payable",
      "type": "constructor"
    },
    {
      "anonymous": false,
      "inputs": [
        {
          "indexed": true,
          "internalType": "address",
          "name": "owner",
          "type": "address"
        },
        {
          "indexed": true,
          "internalType": "address",
          "name": "approved",
          "type": "address"
        },
        {
          "indexed": true,
          "internalType": "uint256",
          "name": "tokenId",
          "type": "uint256"
        }
      ],
      "name": "Approval",
      "type": "event"
    },
    {
      "anonymous": false,
      "inputs": [
        {
          "indexed": true,
          "internalType": "address",
          "name": "owner",
          "type": "address"
        },
        {
          "indexed": true,
          "internalType": "address",
          "name": "operator",
          "type": "address"
        },
        {
          "indexed": false,
          "internalType": "bool",
          "name": "approved",
          "type": "bool"
        }
      ],
      "name": "ApprovalForAll",
      "type": "event"
    },
    {
      "anonymous": false,
      "inputs": [
        {
          "indexed": true,
          "internalType": "address",
          "name": "previousOwner",
          "type": "address"
        },
        {
          "indexed": true,
          "internalType": "address",
          "name": "newOwner",
          "type": "address"
        }
      ],
      "name": "OwnershipTransferred",
      "type": "event"
    },
    {
      "anonymous": false,
      "inputs": [
        {
          "indexed": true,
          "internalType": "address",
          "name": "from",
          "type": "address"
        },
        {
          "indexed": true,
          "internalType": "address",
          "name": "to",
          "type": "address"
        },
        {
          "indexed": true,
          "internalType": "uint256",
          "name": "tokenId",
          "type": "uint256"
        }
      ],
      "name": "Transfer",
      "type": "event"
    },
    {
      "inputs": [
        {
          "internalType": "address",
          "name": "to",
          "type": "address"
        },
        {
          "internalType": "uint256",
          "name": "tokenId",
          "type": "uint256"
        }
      ],
      "name": "approve",
      "outputs": [],
      "stateMutability": "nonpayable",
      "type": "function"
    },
    {
      "inputs": [
        {
          "internalType": "address",
          "name": "owner",
          "type": "address"
        }
      ],
      "name": "balanceOf",
      "outputs": [
        {
          "internalType": "uint256",
          "name": "",
          "type": "uint256"
        }
      ],
      "stateMutability": "view",
      "type": "function"
    },
    {
      "inputs": [
        {
          "internalType": "uint256",
          "name": "tokenId",
          "type": "uint256"
        }
      ],
      "name": "getApproved",
      "outputs": [
        {
          "internalType": "address",
          "name": "",
          "type": "address"
        }
      ],
      "stateMutability": "view",
      "type": "function"
    },
    {
      "inputs": [],
      "name": "getMintPrice",
      "outputs": [
        {
          "internalType": "uint256",
          "name": "",
          "type": "uint256"
        }
      ],
      "stateMutability": "view",
      "type": "function"
    },
    {
      "inputs": [
        {
          "internalType": "address",
          "name": "owner",
          "type": "address"
        },
        {
          "internalType": "address",
          "name": "operator",
          "type": "address"
        }
      ],
      "name": "isApprovedForAll",
      "outputs": [
        {
          "internalType": "bool",
          "name": "",
          "type": "bool"
        }
      ],
      "stateMutability": "view",
      "type": "function"
    },
    {
      "inputs": [],
      "name": "isPublicMintEnabled",
      "outputs": [
        {
          "internalType": "bool",
          "name": "",
          "type": "bool"
        }
      ],
      "stateMutability": "view",
      "type": "function"
    },
    {
      "inputs": [],
      "name": "maxPerWallet",
      "outputs": [
        {
          "internalType": "uint256",
          "name": "",
          "type": "uint256"
        }
      ],
      "stateMutability": "view",
      "type": "function"
    },
    {
      "inputs": [],
      "name": "maxSupply",
      "outputs": [
        {
          "internalType": "uint256",
          "name": "",
          "type": "uint256"
        }
      ],
      "stateMutability": "view",
      "type": "function"
    },
    {
      "inputs": [
        {
          "internalType": "uint256",
          "name": "quantity_",
          "type": "uint256"
        }
      ],
      "name": "mint",
      "outputs": [],
      "stateMutability": "payable",
      "type": "function"
    },
    {
      "inputs": [],
      "name": "mintPrice",
      "outputs": [
        {
          "internalType": "uint256",
          "name": "",
          "type": "uint256"
        }
      ],
      "stateMutability": "view",
      "type": "function"
    },
    {
      "inputs": [],
      "name": "name",
      "outputs": [
        {
          "internalType": "string",
          "name": "",
          "type": "string"
        }
      ],
      "stateMutability": "view",
      "type": "function"
    },
    {
      "inputs": [],
      "name": "owner",
      "outputs": [
        {
          "internalType": "address",
          "name": "",
          "type": "address"
        }
      ],
      "stateMutability": "view",
      "type": "function"
    },
    {
      "inputs": [
        {
          "internalType": "uint256",
          "name": "tokenId",
          "type": "uint256"
        }
      ],
      "name": "ownerOf",
      "outputs": [
        {
          "internalType": "address",
          "name": "",
          "type": "address"
        }
      ],
      "stateMutability": "view",
      "type": "function"
    },
    {
      "inputs": [],
      "name": "renounceOwnership",
      "outputs": [],
      "stateMutability": "nonpayable",
      "type": "function"
    },
    {
      "inputs": [
        {
          "internalType": "address",
          "name": "from",
          "type": "address"
        },
        {
          "internalType": "address",
          "name": "to",
          "type": "address"
        },
        {
          "internalType": "uint256",
          "name": "tokenId",
          "type": "uint256"
        }
      ],
      "name": "safeTransferFrom",
      "outputs": [],
      "stateMutability": "nonpayable",
      "type": "function"
    },
    {
      "inputs": [
        {
          "internalType": "address",
          "name": "from",
          "type": "address"
        },
        {
          "internalType": "address",
          "name": "to",
          "type": "address"
        },
        {
          "internalType": "uint256",
          "name": "tokenId",
          "type": "uint256"
        },
        {
          "internalType": "bytes",
          "name": "_data",
          "type": "bytes"
        }
      ],
      "name": "safeTransferFrom",
      "outputs": [],
      "stateMutability": "nonpayable",
      "type": "function"
    },
    {
      "inputs": [
        {
          "internalType": "address",
          "name": "operator",
          "type": "address"
        },
        {
          "internalType": "bool",
          "name": "approved",
          "type": "bool"
        }
      ],
      "name": "setApprovalForAll",
      "outputs": [],
      "stateMutability": "nonpayable",
      "type": "function"
    },
    {
      "inputs": [
        {
          "internalType": "string",
          "name": "baseTokenUri_",
          "type": "string"
        }
      ],
      "name": "setBaseTokenUri",
      "outputs": [],
      "stateMutability": "nonpayable",
      "type": "function"
    },
    {
      "inputs": [
        {
          "internalType": "bool",
          "name": "isPublicMintEnabled_",
          "type": "bool"
        }
      ],
      "name": "setIsPublicMintEnabled",
      "outputs": [],
      "stateMutability": "nonpayable",
      "type": "function"
    },
    {
      "inputs": [
        {
          "internalType": "bytes4",
          "name": "interfaceId",
          "type": "bytes4"
        }
      ],
      "name": "supportsInterface",
      "outputs": [
        {
          "internalType": "bool",
          "name": "",
          "type": "bool"
        }
      ],
      "stateMutability": "view",
      "type": "function"
    },
    {
      "inputs": [],
      "name": "symbol",
      "outputs": [
        {
          "internalType": "string",
          "name": "",
          "type": "string"
        }
      ],
      "stateMutability": "view",
      "type": "function"
    },
    {
      "inputs": [
        {
          "internalType": "uint256",
          "name": "tokenId_",
          "type": "uint256"
        }
      ],
      "name": "tokenURI",
      "outputs": [
        {
          "internalType": "string",
          "name": "",
          "type": "string"
        }
      ],
      "stateMutability": "view",
      "type": "function"
    },
    {
      "inputs": [],
      "name": "totalSupply",
      "outputs": [
        {
          "internalType": "uint256",
          "name": "",
          "type": "uint256"
        }
      ],
      "stateMutability": "view",
      "type": "function"
    },
    {
      "inputs": [
        {
          "internalType": "address",
          "name": "from",
          "type": "address"
        },
        {
          "internalType": "address",
          "name": "to",
          "type": "address"
        },
        {
          "internalType": "uint256",
          "name": "tokenId",
          "type": "uint256"
        }
      ],
      "name": "transferFrom",
      "outputs": [],
      "stateMutability": "nonpayable",
      "type": "function"
    },
    {
      "inputs": [
        {
          "internalType": "address",
          "name": "newOwner",
          "type": "address"
        }
      ],
      "name": "transferOwnership",
      "outputs": [],
      "stateMutability": "nonpayable",
      "type": "function"
    },
    {
      "inputs": [
        {
          "internalType": "address",
          "name": "",
          "type": "address"
        }
      ],
      "name": "walletMints",
      "outputs": [
        {
          "internalType": "uint256",
          "name": "",
          "type": "uint256"
        }
      ],
      "stateMutability": "view",
      "type": "function"
    }
  ],
  "bytecode": "0x60806040526040518060400160405280600481526020017f44656d6f000000000000000000000000000000000000000000000000000000008152506040518060400160405280600281526020017f444d000000000000000000000000000000000000000000000000000000000000815250816000908051906020019062000088929190620001bf565b508060019080519060200190620000a1929190620001bf565b505050620000c4620000b8620000f160201b60201c565b620000f960201b60201c565b662386f26fc1000060078190555060006008819055506103e86009819055506003600a81905550620002d4565b600033905090565b6000600660009054906101000a900473ffffffffffffffffffffffffffffffffffffffff16905081600660006101000a81548173ffffffffffffffffffffffffffffffffffffffff021916908373ffffffffffffffffffffffffffffffffffffffff1602179055508173ffffffffffffffffffffffffffffffffffffffff168173ffffffffffffffffffffffffffffffffffffffff167f8be0079c531659141344cd1fd0a4f28419497f9722a3daafe3b4186f6b6457e060405160405180910390a35050565b828054620001cd906200026f565b90600052602060002090601f016020900481019282620001f157600085556200023d565b82601f106200020c57805160ff19168380011785556200023d565b828001600101855582156200023d579182015b828111156200023c5782518255916020019190600101906200021f565b5b5090506200024c919062000250565b5090565b5b808211156200026b57600081600090555060010162000251565b5090565b600060028204905060018216806200028857607f821691505b602082108114156200029f576200029e620002a5565b5b50919050565b7f4e487b7100000000000000000000000000000000000000000000000000000000600052602260045260246000fd5b61350a80620002e46000396000f3fe6080604052600436106101815760003560e01c8063715018a6116100d1578063a7f93ebd1161008a578063d5abeb0111610064578063d5abeb0114610561578063e985e9c51461058c578063f0293fd3146105c9578063f2fde38b1461060657610181565b8063a7f93ebd146104d0578063b88d4fde146104fb578063c87b56dd1461052457610181565b8063715018a6146103f55780638da5cb5b1461040c57806395652cfa1461043757806395d89b4114610460578063a0712d681461048b578063a22cb465146104a757610181565b80632373ac221161013e578063453c231011610118578063453c2310146103255780636352211e146103505780636817c76c1461038d57806370a08231146103b857610181565b80632373ac22146102aa57806323b872dd146102d357806342842e0e146102fc57610181565b80630116bc2d1461018657806301ffc9a7146101b157806306fdde03146101ee578063081812fc14610219578063095ea7b31461025657806318160ddd1461027f575b600080fd5b34801561019257600080fd5b5061019b61062f565b6040516101a8919061287e565b60405180910390f35b3480156101bd57600080fd5b506101d860048036038101906101d391906122fa565b610642565b6040516101e5919061287e565b60405180910390f35b3480156101fa57600080fd5b50610203610724565b6040516102109190612899565b60405180910390f35b34801561022557600080fd5b50610240600480360381019061023b9190612391565b6107b6565b60405161024d9190612817565b60405180910390f35b34801561026257600080fd5b5061027d60048036038101906102789190612295565b61083b565b005b34801561028b57600080fd5b50610294610953565b6040516102a19190612b3b565b60405180910390f35b3480156102b657600080fd5b506102d160048036038101906102cc91906122d1565b610959565b005b3480156102df57600080fd5b506102fa60048036038101906102f5919061218f565b6109f2565b005b34801561030857600080fd5b50610323600480360381019061031e919061218f565b610a52565b005b34801561033157600080fd5b5061033a610a72565b6040516103479190612b3b565b60405180910390f35b34801561035c57600080fd5b5061037760048036038101906103729190612391565b610a78565b6040516103849190612817565b60405180910390f35b34801561039957600080fd5b506103a2610b2a565b6040516103af9190612b3b565b60405180910390f35b3480156103c457600080fd5b506103df60048036038101906103da919061212a565b610b30565b6040516103ec9190612b3b565b60405180910390f35b34801561040157600080fd5b5061040a610be8565b005b34801561041857600080fd5b50610421610c70565b60405161042e9190612817565b60405180910390f35b34801561044357600080fd5b5061045e6004803603810190610459919061234c565b610c9a565b005b34801561046c57600080fd5b50610475610d2c565b6040516104829190612899565b60405180910390f35b6104a560048036038101906104a09190612391565b610dbe565b005b3480156104b357600080fd5b506104ce60048036038101906104c99190612259565b610f95565b005b3480156104dc57600080fd5b506104e5610fab565b6040516104f29190612b3b565b60405180910390f35b34801561050757600080fd5b50610522600480360381019061051d91906121de565b610fb5565b005b34801561053057600080fd5b5061054b60048036038101906105469190612391565b611017565b6040516105589190612899565b60405180910390f35b34801561056d57600080fd5b50610576611093565b6040516105839190612b3b565b60405180910390f35b34801561059857600080fd5b506105b360048036038101906105ae9190612153565b611099565b6040516105c0919061287e565b60405180910390f35b3480156105d557600080fd5b506105f060048036038101906105eb919061212a565b61112d565b6040516105fd9190612b3b565b60405180910390f35b34801561061257600080fd5b5061062d6004803603810190610628919061212a565b611145565b005b600b60009054906101000a900460ff1681565b60007f80ac58cd000000000000000000000000000000000000000000000000000000007bffffffffffffffffffffffffffffffffffffffffffffffffffffffff1916827bffffffffffffffffffffffffffffffffffffffffffffffffffffffff1916148061070d57507f5b5e139f000000000000000000000000000000000000000000000000000000007bffffffffffffffffffffffffffffffffffffffffffffffffffffffff1916827bffffffffffffffffffffffffffffffffffffffffffffffffffffffff1916145b8061071d575061071c8261123d565b5b9050919050565b60606000805461073390612dcf565b80601f016020809104026020016040519081016040528092919081815260200182805461075f90612dcf565b80156107ac5780601f10610781576101008083540402835291602001916107ac565b820191906000526020600020905b81548152906001019060200180831161078f57829003601f168201915b5050505050905090565b60006107c1826112a7565b610800576040517f08c379a00000000000000000000000000000000000000000000000000000000081526004016107f790612a7b565b60405180910390fd5b6004600083815260200190815260200160002060009054906101000a900473ffffffffffffffffffffffffffffffffffffffff169050919050565b600061084682610a78565b90508073ffffffffffffffffffffffffffffffffffffffff168373ffffffffffffffffffffffffffffffffffffffff1614156108b7576040517f08c379a00000000000000000000000000000000000000000000000000000000081526004016108ae90612adb565b60405180910390fd5b8073ffffffffffffffffffffffffffffffffffffffff166108d6611313565b73ffffffffffffffffffffffffffffffffffffffff1614806109055750610904816108ff611313565b611099565b5b610944576040517f08c379a000000000000000000000000000000000000000000000000000000000815260040161093b906129fb565b60405180910390fd5b61094e838361131b565b505050565b60085481565b610961611313565b73ffffffffffffffffffffffffffffffffffffffff1661097f610c70565b73ffffffffffffffffffffffffffffffffffffffff16146109d5576040517f08c379a00000000000000000000000000000000000000000000000000000000081526004016109cc90612abb565b60405180910390fd5b80600b60006101000a81548160ff02191690831515021790555050565b610a036109fd611313565b826113d4565b610a42576040517f08c379a0000000000000000000000000000000000000000000000000000000008152600401610a3990612afb565b60405180910390fd5b610a4d8383836114b2565b505050565b610a6d83838360405180602001604052806000815250610fb5565b505050565b600a5481565b6000806002600084815260200190815260200160002060009054906101000a900473ffffffffffffffffffffffffffffffffffffffff169050600073ffffffffffffffffffffffffffffffffffffffff168173ffffffffffffffffffffffffffffffffffffffff161415610b21576040517f08c379a0000000000000000000000000000000000000000000000000000000008152600401610b1890612a3b565b60405180910390fd5b80915050919050565b60075481565b60008073ffffffffffffffffffffffffffffffffffffffff168273ffffffffffffffffffffffffffffffffffffffff161415610ba1576040517f08c379a0000000000000000000000000000000000000000000000000000000008152600401610b9890612a1b565b60405180910390fd5b600360008373ffffffffffffffffffffffffffffffffffffffff1673ffffffffffffffffffffffffffffffffffffffff168152602001908152602001600020549050919050565b610bf0611313565b73ffffffffffffffffffffffffffffffffffffffff16610c0e610c70565b73ffffffffffffffffffffffffffffffffffffffff1614610c64576040517f08c379a0000000000000000000000000000000000000000000000000000000008152600401610c5b90612abb565b60405180910390fd5b610c6e6000611719565b565b6000600660009054906101000a900473ffffffffffffffffffffffffffffffffffffffff16905090565b610ca2611313565b73ffffffffffffffffffffffffffffffffffffffff16610cc0610c70565b73ffffffffffffffffffffffffffffffffffffffff1614610d16576040517f08c379a0000000000000000000000000000000000000000000000000000000008152600401610d0d90612abb565b60405180910390fd5b8181600c9190610d27929190611f6c565b505050565b606060018054610d3b90612dcf565b80601f0160208091040260200160405190810160405280929190818152602001828054610d6790612dcf565b8015610db45780601f10610d8957610100808354040283529160200191610db4565b820191906000526020600020905b815481529060010190602001808311610d9757829003601f168201915b5050505050905090565b600b60009054906101000a900460ff16610e0d576040517f08c379a0000000000000000000000000000000000000000000000000000000008152600401610e04906128fb565b60405180910390fd5b60075481610e1b9190612c8b565b3414610e5c576040517f08c379a0000000000000000000000000000000000000000000000000000000008152600401610e53906128bb565b60405180910390fd5b60095481600854610e6d9190612c04565b1115610eae576040517f08c379a0000000000000000000000000000000000000000000000000000000008152600401610ea5906129db565b60405180910390fd5b600a5481600d60003373ffffffffffffffffffffffffffffffffffffffff1673ffffffffffffffffffffffffffffffffffffffff16815260200190815260200160002054610efc9190612c04565b1115610f3d576040517f08c379a0000000000000000000000000000000000000000000000000000000008152600401610f3490612a9b565b60405180910390fd5b60005b81811015610f915760006001600854610f599190612c04565b905060086000815480929190610f6e90612e32565b9190505550610f7d33826117df565b508080610f8990612e32565b915050610f40565b5050565b610fa7610fa0611313565b83836117fd565b5050565b6000600754905090565b610fc6610fc0611313565b836113d4565b611005576040517f08c379a0000000000000000000000000000000000000000000000000000000008152600401610ffc90612afb565b60405180910390fd5b6110118484848461196a565b50505050565b6060611022826112a7565b611061576040517f08c379a000000000000000000000000000000000000000000000000000000000815260040161105890612b1b565b60405180910390fd5b600c61106c836119c6565b60405160200161107d9291906127e8565b6040516020818303038152906040529050919050565b60095481565b6000600560008473ffffffffffffffffffffffffffffffffffffffff1673ffffffffffffffffffffffffffffffffffffffff16815260200190815260200160002060008373ffffffffffffffffffffffffffffffffffffffff1673ffffffffffffffffffffffffffffffffffffffff16815260200190815260200160002060009054906101000a900460ff16905092915050565b600d6020528060005260406000206000915090505481565b61114d611313565b73ffffffffffffffffffffffffffffffffffffffff1661116b610c70565b73ffffffffffffffffffffffffffffffffffffffff16146111c1576040517f08c379a00000000000000000000000000000000000000000000000000000000081526004016111b890612abb565b60405180910390fd5b600073ffffffffffffffffffffffffffffffffffffffff168173ffffffffffffffffffffffffffffffffffffffff161415611231576040517f08c379a00000000000000000000000000000000000000000000000000000000081526004016112289061291b565b60405180910390fd5b61123a81611719565b50565b60007f01ffc9a7000000000000000000000000000000000000000000000000000000007bffffffffffffffffffffffffffffffffffffffffffffffffffffffff1916827bffffffffffffffffffffffffffffffffffffffffffffffffffffffff1916149050919050565b60008073ffffffffffffffffffffffffffffffffffffffff166002600084815260200190815260200160002060009054906101000a900473ffffffffffffffffffffffffffffffffffffffff1673ffffffffffffffffffffffffffffffffffffffff1614159050919050565b600033905090565b816004600083815260200190815260200160002060006101000a81548173ffffffffffffffffffffffffffffffffffffffff021916908373ffffffffffffffffffffffffffffffffffffffff160217905550808273ffffffffffffffffffffffffffffffffffffffff1661138e83610a78565b73ffffffffffffffffffffffffffffffffffffffff167f8c5be1e5ebec7d5bd14f71427d1e84f3dd0314c0f7b2291e5b200ac8c7c3b92560405160405180910390a45050565b60006113df826112a7565b61141e576040517f08c379a0000000000000000000000000000000000000000000000000000000008152600401611415906129bb565b60405180910390fd5b600061142983610a78565b90508073ffffffffffffffffffffffffffffffffffffffff168473ffffffffffffffffffffffffffffffffffffffff16148061146b575061146a8185611099565b5b806114a957508373ffffffffffffffffffffffffffffffffffffffff16611491846107b6565b73ffffffffffffffffffffffffffffffffffffffff16145b91505092915050565b8273ffffffffffffffffffffffffffffffffffffffff166114d282610a78565b73ffffffffffffffffffffffffffffffffffffffff1614611528576040517f08c379a000000000000000000000000000000000000000000000000000000000815260040161151f9061293b565b60405180910390fd5b600073ffffffffffffffffffffffffffffffffffffffff168273ffffffffffffffffffffffffffffffffffffffff161415611598576040517f08c379a000000000000000000000000000000000000000000000000000000000815260040161158f9061297b565b60405180910390fd5b6115a3838383611b73565b6115ae60008261131b565b6001600360008573ffffffffffffffffffffffffffffffffffffffff1673ffffffffffffffffffffffffffffffffffffffff16815260200190815260200160002060008282546115fe9190612ce5565b925050819055506001600360008473ffffffffffffffffffffffffffffffffffffffff1673ffffffffffffffffffffffffffffffffffffffff16815260200190815260200160002060008282546116559190612c04565b92505081905550816002600083815260200190815260200160002060006101000a81548173ffffffffffffffffffffffffffffffffffffffff021916908373ffffffffffffffffffffffffffffffffffffffff160217905550808273ffffffffffffffffffffffffffffffffffffffff168473ffffffffffffffffffffffffffffffffffffffff167fddf252ad1be2c89b69c2b068fc378daa952ba7f163c4a11628f55a4df523b3ef60405160405180910390a4611714838383611b78565b505050565b6000600660009054906101000a900473ffffffffffffffffffffffffffffffffffffffff16905081600660006101000a81548173ffffffffffffffffffffffffffffffffffffffff021916908373ffffffffffffffffffffffffffffffffffffffff1602179055508173ffffffffffffffffffffffffffffffffffffffff168173ffffffffffffffffffffffffffffffffffffffff167f8be0079c531659141344cd1fd0a4f28419497f9722a3daafe3b4186f6b6457e060405160405180910390a35050565b6117f9828260405180602001604052806000815250611b7d565b5050565b8173ffffffffffffffffffffffffffffffffffffffff168373ffffffffffffffffffffffffffffffffffffffff16141561186c576040517f08c379a00000000000000000000000000000000000000000000000000000000081526004016118639061299b565b60405180910390fd5b80600560008573ffffffffffffffffffffffffffffffffffffffff1673ffffffffffffffffffffffffffffffffffffffff16815260200190815260200160002060008473ffffffffffffffffffffffffffffffffffffffff1673ffffffffffffffffffffffffffffffffffffffff16815260200190815260200160002060006101000a81548160ff0219169083151502179055508173ffffffffffffffffffffffffffffffffffffffff168373ffffffffffffffffffffffffffffffffffffffff167f17307eab39ab6107e8899845ad3d59bd9653f200f220920489ca2b5937696c318360405161195d919061287e565b60405180910390a3505050565b6119758484846114b2565b61198184848484611bd8565b6119c0576040517f08c379a00000000000000000000000000000000000000000000000000000000081526004016119b7906128db565b60405180910390fd5b50505050565b60606000821415611a0e576040518060400160405280600181526020017f30000000000000000000000000000000000000000000000000000000000000008152509050611b6e565b600082905060005b60008214611a40578080611a2990612e32565b915050600a82611a399190612c5a565b9150611a16565b60008167ffffffffffffffff811115611a82577f4e487b7100000000000000000000000000000000000000000000000000000000600052604160045260246000fd5b6040519080825280601f01601f191660200182016040528015611ab45781602001600182028036833780820191505090505b5090505b60008514611b6757600182611acd9190612ce5565b9150600a85611adc9190612e7b565b6030611ae89190612c04565b60f81b818381518110611b24577f4e487b7100000000000000000000000000000000000000000000000000000000600052603260045260246000fd5b60200101907effffffffffffffffffffffffffffffffffffffffffffffffffffffffffffff1916908160001a905350600a85611b609190612c5a565b9450611ab8565b8093505050505b919050565b505050565b505050565b611b878383611d6f565b611b946000848484611bd8565b611bd3576040517f08c379a0000000000000000000000000000000000000000000000000000000008152600401611bca906128db565b60405180910390fd5b505050565b6000611bf98473ffffffffffffffffffffffffffffffffffffffff16611f49565b15611d62578373ffffffffffffffffffffffffffffffffffffffff1663150b7a02611c22611313565b8786866040518563ffffffff1660e01b8152600401611c449493929190612832565b602060405180830381600087803b158015611c5e57600080fd5b505af1925050508015611c8f57506040513d601f19601f82011682018060405250810190611c8c9190612323565b60015b611d12573d8060008114611cbf576040519150601f19603f3d011682016040523d82523d6000602084013e611cc4565b606091505b50600081511415611d0a576040517f08c379a0000000000000000000000000000000000000000000000000000000008152600401611d01906128db565b60405180910390fd5b805181602001fd5b63150b7a0260e01b7bffffffffffffffffffffffffffffffffffffffffffffffffffffffff1916817bffffffffffffffffffffffffffffffffffffffffffffffffffffffff191614915050611d67565b600190505b949350505050565b600073ffffffffffffffffffffffffffffffffffffffff168273ffffffffffffffffffffffffffffffffffffffff161415611ddf576040517f08c379a0000000000000000000000000000000000000000000000000000000008152600401611dd690612a5b565b60405180910390fd5b611de8816112a7565b15611e28576040517f08c379a0000000000000000000000000000000000000000000000000000000008152600401611e1f9061295b565b60405180910390fd5b611e3460008383611b73565b6001600360008473ffffffffffffffffffffffffffffffffffffffff1673ffffffffffffffffffffffffffffffffffffffff1681526020019081526020016000206000828254611e849190612c04565b92505081905550816002600083815260200190815260200160002060006101000a81548173ffffffffffffffffffffffffffffffffffffffff021916908373ffffffffffffffffffffffffffffffffffffffff160217905550808273ffffffffffffffffffffffffffffffffffffffff16600073ffffffffffffffffffffffffffffffffffffffff167fddf252ad1be2c89b69c2b068fc378daa952ba7f163c4a11628f55a4df523b3ef60405160405180910390a4611f4560008383611b78565b5050565b6000808273ffffffffffffffffffffffffffffffffffffffff163b119050919050565b828054611f7890612dcf565b90600052602060002090601f016020900481019282611f9a5760008555611fe1565b82601f10611fb357803560ff1916838001178555611fe1565b82800160010185558215611fe1579182015b82811115611fe0578235825591602001919060010190611fc5565b5b509050611fee9190611ff2565b5090565b5b8082111561200b576000816000905550600101611ff3565b5090565b600061202261201d84612b7b565b612b56565b90508281526020810184848401111561203a57600080fd5b612045848285612d8d565b509392505050565b60008135905061205c81613478565b92915050565b6000813590506120718161348f565b92915050565b600081359050612086816134a6565b92915050565b60008151905061209b816134a6565b92915050565b600082601f8301126120b257600080fd5b81356120c284826020860161200f565b91505092915050565b60008083601f8401126120dd57600080fd5b8235905067ffffffffffffffff8111156120f657600080fd5b60208301915083600182028301111561210e57600080fd5b9250929050565b600081359050612124816134bd565b92915050565b60006020828403121561213c57600080fd5b600061214a8482850161204d565b91505092915050565b6000806040838503121561216657600080fd5b60006121748582860161204d565b92505060206121858582860161204d565b9150509250929050565b6000806000606084860312156121a457600080fd5b60006121b28682870161204d565b93505060206121c38682870161204d565b92505060406121d486828701612115565b9150509250925092565b600080600080608085870312156121f457600080fd5b60006122028782880161204d565b94505060206122138782880161204d565b935050604061222487828801612115565b925050606085013567ffffffffffffffff81111561224157600080fd5b61224d878288016120a1565b91505092959194509250565b6000806040838503121561226c57600080fd5b600061227a8582860161204d565b925050602061228b85828601612062565b9150509250929050565b600080604083850312156122a857600080fd5b60006122b68582860161204d565b92505060206122c785828601612115565b9150509250929050565b6000602082840312156122e357600080fd5b60006122f184828501612062565b91505092915050565b60006020828403121561230c57600080fd5b600061231a84828501612077565b91505092915050565b60006020828403121561233557600080fd5b60006123438482850161208c565b91505092915050565b6000806020838503121561235f57600080fd5b600083013567ffffffffffffffff81111561237957600080fd5b612385858286016120cb565b92509250509250929050565b6000602082840312156123a357600080fd5b60006123b184828501612115565b91505092915050565b6123c381612d19565b82525050565b6123d281612d2b565b82525050565b60006123e382612bc1565b6123ed8185612bd7565b93506123fd818560208601612d9c565b61240681612f68565b840191505092915050565b600061241c82612bcc565b6124268185612be8565b9350612436818560208601612d9c565b61243f81612f68565b840191505092915050565b600061245582612bcc565b61245f8185612bf9565b935061246f818560208601612d9c565b80840191505092915050565b6000815461248881612dcf565b6124928186612bf9565b945060018216600081146124ad57600181146124be576124f1565b60ff198316865281860193506124f1565b6124c785612bac565b60005b838110156124e9578154818901526001820191506020810190506124ca565b838801955050505b50505092915050565b6000612507601083612be8565b915061251282612f79565b602082019050919050565b600061252a603283612be8565b915061253582612fa2565b604082019050919050565b600061254d601383612be8565b915061255882612ff1565b602082019050919050565b6000612570602683612be8565b915061257b8261301a565b604082019050919050565b6000612593602583612be8565b915061259e82613069565b604082019050919050565b60006125b6601c83612be8565b91506125c1826130b8565b602082019050919050565b60006125d9602483612be8565b91506125e4826130e1565b604082019050919050565b60006125fc601983612be8565b915061260782613130565b602082019050919050565b600061261f602c83612be8565b915061262a82613159565b604082019050919050565b6000612642600883612be8565b915061264d826131a8565b602082019050919050565b6000612665603883612be8565b9150612670826131d1565b604082019050919050565b6000612688602a83612be8565b915061269382613220565b604082019050919050565b60006126ab602983612be8565b91506126b68261326f565b604082019050919050565b60006126ce602083612be8565b91506126d9826132be565b602082019050919050565b60006126f1602c83612be8565b91506126fc826132e7565b604082019050919050565b6000612714600583612bf9565b915061271f82613336565b600582019050919050565b6000612737601183612be8565b91506127428261335f565b602082019050919050565b600061275a602083612be8565b915061276582613388565b602082019050919050565b600061277d602183612be8565b9150612788826133b1565b604082019050919050565b60006127a0603183612be8565b91506127ab82613400565b604082019050919050565b60006127c3601583612be8565b91506127ce8261344f565b602082019050919050565b6127e281612d83565b82525050565b60006127f4828561247b565b9150612800828461244a565b915061280b82612707565b91508190509392505050565b600060208201905061282c60008301846123ba565b92915050565b600060808201905061284760008301876123ba565b61285460208301866123ba565b61286160408301856127d9565b818103606083015261287381846123d8565b905095945050505050565b600060208201905061289360008301846123c9565b92915050565b600060208201905081810360008301526128b38184612411565b905092915050565b600060208201905081810360008301526128d4816124fa565b9050919050565b600060208201905081810360008301526128f48161251d565b9050919050565b6000602082019050818103600083015261291481612540565b9050919050565b6000602082019050818103600083015261293481612563565b9050919050565b6000602082019050818103600083015261295481612586565b9050919050565b60006020820190508181036000830152612974816125a9565b9050919050565b60006020820190508181036000830152612994816125cc565b9050919050565b600060208201905081810360008301526129b4816125ef565b9050919050565b600060208201905081810360008301526129d481612612565b9050919050565b600060208201905081810360008301526129f481612635565b9050919050565b60006020820190508181036000830152612a1481612658565b9050919050565b60006020820190508181036000830152612a348161267b565b9050919050565b60006020820190508181036000830152612a548161269e565b9050919050565b60006020820190508181036000830152612a74816126c1565b9050919050565b60006020820190508181036000830152612a94816126e4565b9050919050565b60006020820190508181036000830152612ab48161272a565b9050919050565b60006020820190508181036000830152612ad48161274d565b9050919050565b60006020820190508181036000830152612af481612770565b9050919050565b60006020820190508181036000830152612b1481612793565b9050919050565b60006020820190508181036000830152612b34816127b6565b9050919050565b6000602082019050612b5060008301846127d9565b92915050565b6000612b60612b71565b9050612b6c8282612e01565b919050565b6000604051905090565b600067ffffffffffffffff821115612b9657612b95612f39565b5b612b9f82612f68565b9050602081019050919050565b60008190508160005260206000209050919050565b600081519050919050565b600081519050919050565b600082825260208201905092915050565b600082825260208201905092915050565b600081905092915050565b6000612c0f82612d83565b9150612c1a83612d83565b9250827fffffffffffffffffffffffffffffffffffffffffffffffffffffffffffffffff03821115612c4f57612c4e612eac565b5b828201905092915050565b6000612c6582612d83565b9150612c7083612d83565b925082612c8057612c7f612edb565b5b828204905092915050565b6000612c9682612d83565b9150612ca183612d83565b9250817fffffffffffffffffffffffffffffffffffffffffffffffffffffffffffffffff0483118215151615612cda57612cd9612eac565b5b828202905092915050565b6000612cf082612d83565b9150612cfb83612d83565b925082821015612d0e57612d0d612eac565b5b828203905092915050565b6000612d2482612d63565b9050919050565b60008115159050919050565b60007fffffffff0000000000000000000000000000000000000000000000000000000082169050919050565b600073ffffffffffffffffffffffffffffffffffffffff82169050919050565b6000819050919050565b82818337600083830152505050565b60005b83811015612dba578082015181840152602081019050612d9f565b83811115612dc9576000848401525b50505050565b60006002820490506001821680612de757607f821691505b60208210811415612dfb57612dfa612f0a565b5b50919050565b612e0a82612f68565b810181811067ffffffffffffffff82111715612e2957612e28612f39565b5b80604052505050565b6000612e3d82612d83565b91507fffffffffffffffffffffffffffffffffffffffffffffffffffffffffffffffff821415612e7057612e6f612eac565b5b600182019050919050565b6000612e8682612d83565b9150612e9183612d83565b925082612ea157612ea0612edb565b5b828206905092915050565b7f4e487b7100000000000000000000000000000000000000000000000000000000600052601160045260246000fd5b7f4e487b7100000000000000000000000000000000000000000000000000000000600052601260045260246000fd5b7f4e487b7100000000000000000000000000000000000000000000000000000000600052602260045260246000fd5b7f4e487b7100000000000000000000000000000000000000000000000000000000600052604160045260246000fd5b6000601f19601f8301169050919050565b7f77726f6e67206d696e742076616c756500000000000000000000000000000000600082015250565b7f4552433732313a207472616e7366657220746f206e6f6e20455243373231526560008201527f63656976657220696d706c656d656e7465720000000000000000000000000000602082015250565b7f6d696e74696e67206e6f7420656e61626c656400000000000000000000000000600082015250565b7f4f776e61626c653a206e6577206f776e657220697320746865207a65726f206160008201527f6464726573730000000000000000000000000000000000000000000000000000602082015250565b7f4552433732313a207472616e736665722066726f6d20696e636f72726563742060008201527f6f776e6572000000000000000000000000000000000000000000000000000000602082015250565b7f4552433732313a20746f6b656e20616c7265616479206d696e74656400000000600082015250565b7f4552433732313a207472616e7366657220746f20746865207a65726f2061646460008201527f7265737300000000000000000000000000000000000000000000000000000000602082015250565b7f4552433732313a20617070726f766520746f2063616c6c657200000000000000600082015250565b7f4552433732313a206f70657261746f7220717565727920666f72206e6f6e657860008201527f697374656e7420746f6b656e0000000000000000000000000000000000000000602082015250565b7f736f6c64206f7574000000000000000000000000000000000000000000000000600082015250565b7f4552433732313a20617070726f76652063616c6c6572206973206e6f74206f7760008201527f6e6572206e6f7220617070726f76656420666f7220616c6c0000000000000000602082015250565b7f4552433732313a2062616c616e636520717565727920666f7220746865207a6560008201527f726f206164647265737300000000000000000000000000000000000000000000602082015250565b7f4552433732313a206f776e657220717565727920666f72206e6f6e657869737460008201527f656e7420746f6b656e0000000000000000000000000000000000000000000000602082015250565b7f4552433732313a206d696e7420746f20746865207a65726f2061646472657373600082015250565b7f4552433732313a20617070726f76656420717565727920666f72206e6f6e657860008201527f697374656e7420746f6b656e0000000000000000000000000000000000000000602082015250565b7f2e6a736f6e000000000000000000000000000000000000000000000000000000600082015250565b7f657863656564206d61782077616c6c6574000000000000000000000000000000600082015250565b7f4f776e61626c653a2063616c6c6572206973206e6f7420746865206f776e6572600082015250565b7f4552433732313a20617070726f76616c20746f2063757272656e74206f776e6560008201527f7200000000000000000000000000000000000000000000000000000000000000602082015250565b7f4552433732313a207472616e736665722063616c6c6572206973206e6f74206f60008201527f776e6572206e6f7220617070726f766564000000000000000000000000000000602082015250565b7f546f6b656e20646f6573206e6f74206578697374210000000000000000000000600082015250565b61348181612d19565b811461348c57600080fd5b50565b61349881612d2b565b81146134a357600080fd5b50565b6134af81612d37565b81146134ba57600080fd5b50565b6134c681612d83565b81146134d157600080fd5b5056fea26469706673582212204594d10d1461ce16dcb4efcb9803d74a04a65911da69e7f1aeaf61e90470f30164736f6c63430008040033",
  "linkReferences": {},
  "deployedLinkReferences": {}
}